{
  "contractName": "SerhiiLCoin",
  "abi": [
    {
      "inputs": [],
      "stateMutability": "nonpayable",
      "type": "constructor"
    },
    {
      "anonymous": false,
      "inputs": [
        {
          "indexed": true,
          "internalType": "address",
          "name": "tokenOwner",
          "type": "address"
        },
        {
          "indexed": true,
          "internalType": "address",
          "name": "spender",
          "type": "address"
        },
        {
          "indexed": false,
          "internalType": "uint256",
          "name": "tokens",
          "type": "uint256"
        }
      ],
      "name": "Approval",
      "type": "event"
    },
    {
      "anonymous": false,
      "inputs": [
        {
          "indexed": true,
          "internalType": "address",
          "name": "from",
          "type": "address"
        },
        {
          "indexed": true,
          "internalType": "address",
          "name": "to",
          "type": "address"
        },
        {
          "indexed": false,
          "internalType": "uint256",
          "name": "tokens",
          "type": "uint256"
        }
      ],
      "name": "Transfer",
      "type": "event"
    },
    {
      "inputs": [
        {
          "internalType": "address",
          "name": "",
          "type": "address"
        }
      ],
      "name": "balances",
      "outputs": [
        {
          "internalType": "uint256",
          "name": "",
          "type": "uint256"
        }
      ],
      "stateMutability": "view",
      "type": "function",
      "constant": true
    },
    {
      "inputs": [],
      "name": "decimals",
      "outputs": [
        {
          "internalType": "uint8",
          "name": "",
          "type": "uint8"
        }
      ],
      "stateMutability": "view",
      "type": "function",
      "constant": true
    },
    {
      "inputs": [],
      "name": "founder",
      "outputs": [
        {
          "internalType": "address",
          "name": "",
          "type": "address"
        }
      ],
      "stateMutability": "view",
      "type": "function",
      "constant": true
    },
    {
      "inputs": [],
      "name": "name",
      "outputs": [
        {
          "internalType": "string",
          "name": "",
          "type": "string"
        }
      ],
      "stateMutability": "view",
      "type": "function",
      "constant": true
    },
    {
      "inputs": [],
      "name": "symbol",
      "outputs": [
        {
          "internalType": "string",
          "name": "",
          "type": "string"
        }
      ],
      "stateMutability": "view",
      "type": "function",
      "constant": true
    },
    {
      "inputs": [],
      "name": "totalSupply",
      "outputs": [
        {
          "internalType": "uint256",
          "name": "",
          "type": "uint256"
        }
      ],
      "stateMutability": "view",
      "type": "function",
      "constant": true
    },
    {
      "inputs": [
        {
          "internalType": "address",
          "name": "tokenOwner",
          "type": "address"
        }
      ],
      "name": "balanceOf",
      "outputs": [
        {
          "internalType": "uint256",
          "name": "balance",
          "type": "uint256"
        }
      ],
      "stateMutability": "view",
      "type": "function",
      "constant": true
    },
    {
      "inputs": [
        {
          "internalType": "address",
          "name": "to",
          "type": "address"
        },
        {
          "internalType": "uint256",
          "name": "tokens",
          "type": "uint256"
        }
      ],
      "name": "transfer",
      "outputs": [
        {
          "internalType": "bool",
          "name": "success",
          "type": "bool"
        }
      ],
      "stateMutability": "nonpayable",
      "type": "function"
    },
    {
      "inputs": [
        {
          "internalType": "address",
          "name": "tokenOwner",
          "type": "address"
        },
        {
          "internalType": "address",
          "name": "spender",
          "type": "address"
        }
      ],
      "name": "allowance",
      "outputs": [
        {
          "internalType": "uint256",
          "name": "",
          "type": "uint256"
        }
      ],
      "stateMutability": "view",
      "type": "function",
      "constant": true
    },
    {
      "inputs": [
        {
          "internalType": "address",
          "name": "spender",
          "type": "address"
        },
        {
          "internalType": "uint256",
          "name": "tokens",
          "type": "uint256"
        }
      ],
      "name": "approve",
      "outputs": [
        {
          "internalType": "bool",
          "name": "success",
          "type": "bool"
        }
      ],
      "stateMutability": "nonpayable",
      "type": "function"
    },
    {
      "inputs": [
        {
          "internalType": "address",
          "name": "from",
          "type": "address"
        },
        {
          "internalType": "address",
          "name": "to",
          "type": "address"
        },
        {
          "internalType": "uint256",
          "name": "tokens",
          "type": "uint256"
        }
      ],
      "name": "transferFrom",
      "outputs": [
        {
          "internalType": "bool",
          "name": "success",
          "type": "bool"
        }
      ],
      "stateMutability": "nonpayable",
      "type": "function"
    }
  ],
  "bytecode": "0x60c0604052600e60808190526d29b2b93434b49026102a37b5b2b760911b60a090815261002f91600091906100a5565b5060408051808201909152600480825263534c433160e01b602090920191825261005b916001916100a5565b506002805460ff1916905534801561007257600080fd5b50620f42406003819055600480546001600160a01b03191633908117909155600090815260056020526040902055610179565b8280546100b19061013e565b90600052602060002090601f0160209004810192826100d35760008555610119565b82601f106100ec57805160ff1916838001178555610119565b82800160010185558215610119579182015b828111156101195782518255916020019190600101906100fe565b50610125929150610129565b5090565b5b80821115610125576000815560010161012a565b600181811c9082168061015257607f821691505b6020821081141561017357634e487b7160e01b600052602260045260246000fd5b50919050565b6106ae806101886000396000f3fe608060405234801561001057600080fd5b50600436106100a95760003560e01c8063313ce56711610071578063313ce567146101395780634d853ee51461015857806370a082311461018357806395d89b41146101ac578063a9059cbb146101b4578063dd62ed3e146101c757600080fd5b806306fdde03146100ae578063095ea7b3146100cc57806318160ddd146100ef57806323b872dd1461010657806327e235e314610119575b600080fd5b6100b6610200565b6040516100c391906104cc565b60405180910390f35b6100df6100da36600461053d565b61028e565b60405190151581526020016100c3565b6100f860035481565b6040519081526020016100c3565b6100df610114366004610567565b61031c565b6100f86101273660046105a3565b60056020526000908152604090205481565b6002546101469060ff1681565b60405160ff90911681526020016100c3565b60045461016b906001600160a01b031681565b6040516001600160a01b0390911681526020016100c3565b6100f86101913660046105a3565b6001600160a01b031660009081526005602052604090205490565b6100b6610415565b6100df6101c236600461053d565b610422565b6100f86101d53660046105c5565b6001600160a01b03918216600090815260066020908152604080832093909416825291909152205490565b6000805461020d906105f8565b80601f0160208091040260200160405190810160405280929190818152602001828054610239906105f8565b80156102865780601f1061025b57610100808354040283529160200191610286565b820191906000526020600020905b81548152906001019060200180831161026957829003601f168201915b505050505081565b336000908152600560205260408120548211156102aa57600080fd5b600082116102b757600080fd5b3360008181526006602090815260408083206001600160a01b03881680855290835292819020869055518581529192917f8c5be1e5ebec7d5bd14f71427d1e84f3dd0314c0f7b2291e5b200ac8c7c3b92591015b60405180910390a350600192915050565b6001600160a01b03808416600090815260066020908152604080832093861683529290529081205482111561035057600080fd5b6001600160a01b03841660009081526005602052604090205482111561037557600080fd5b6001600160a01b0384166000908152600560205260408120805484929061039d908490610649565b90915550506001600160a01b038316600090815260056020526040812080548492906103ca908490610660565b90915550506001600160a01b03808516600090815260066020908152604080832093871683529290529081208054849290610406908490610649565b90915550600195945050505050565b6001805461020d906105f8565b3360009081526005602052604081205482111561043e57600080fd5b6001600160a01b03831660009081526005602052604081208054849290610466908490610660565b9091555050336000908152600560205260408120805484929061048a908490610649565b90915550506040518281526001600160a01b0384169033907fddf252ad1be2c89b69c2b068fc378daa952ba7f163c4a11628f55a4df523b3ef9060200161030b565b600060208083528351808285015260005b818110156104f9578581018301518582016040015282016104dd565b8181111561050b576000604083870101525b50601f01601f1916929092016040019392505050565b80356001600160a01b038116811461053857600080fd5b919050565b6000806040838503121561055057600080fd5b61055983610521565b946020939093013593505050565b60008060006060848603121561057c57600080fd5b61058584610521565b925061059360208501610521565b9150604084013590509250925092565b6000602082840312156105b557600080fd5b6105be82610521565b9392505050565b600080604083850312156105d857600080fd5b6105e183610521565b91506105ef60208401610521565b90509250929050565b600181811c9082168061060c57607f821691505b6020821081141561062d57634e487b7160e01b600052602260045260246000fd5b50919050565b634e487b7160e01b600052601160045260246000fd5b60008282101561065b5761065b610633565b500390565b6000821982111561067357610673610633565b50019056fea26469706673582212205eac5a64c8674308333eaf3512f1bd9703ab59977ad23fa51cc194afa21951d264736f6c634300080a0033",
  "immutableReferences": {},
  "source": "pragma solidity 0.8.10;\n\ninterface ERC20Interface {\n    function totalSupply() external view returns (uint);\n    function balanceOf(address tokenOwner) external view returns (uint balance);\n    function transfer(address to, uint tokens) external returns (bool success);\n\n    function allowance(address tokenOwner, address spender) external view returns (uint remaining);\n    function approve(address spender, uint tokens) external returns (bool success);\n    function transferFrom(address from, address to, uint tokens) external returns (bool success);\n\n    event Transfer(address indexed from, address indexed to, uint tokens);\n    event Approval(address indexed tokenOwner, address indexed spender, uint tokens);\n}\n\ncontract SerhiiLCoin is ERC20Interface{\n\n    string  public name = \"Serhii L Token\";\n    string  public symbol = \"SLC1\";\n    uint8   public decimals = 0;\n    uint256 public override totalSupply;\n\n    address public founder;\n    mapping(address => uint) public balances;\n\n    mapping(address => mapping(address => uint)) allowed;\n\n    constructor(){\n        totalSupply = 1000000; // 1 million tokens\n        founder = msg.sender;\n        balances[founder] = totalSupply;\n    }\n\n    function balanceOf(address tokenOwner) public view override returns (uint balance){\n        return balances[tokenOwner];\n    }\n\n\n    function transfer(address to, uint tokens) public virtual override returns(bool success){\n        require(balances[msg.sender] >= tokens);\n\n        balances[to] += tokens;\n        balances[msg.sender] -= tokens;\n        emit Transfer(msg.sender, to, tokens);\n\n        return true;\n    }\n\n    function allowance(address tokenOwner, address spender) view public override returns(uint){\n        return allowed[tokenOwner][spender];\n    }\n\n    function approve(address spender, uint tokens) public override returns (bool success){\n        require(balances[msg.sender] >= tokens);\n        require(tokens > 0);\n\n        allowed[msg.sender][spender] = tokens;\n\n        emit Approval(msg.sender, spender, tokens);\n        return true;\n    }\n\n    function transferFrom(address from, address to, uint tokens) public virtual override returns (bool success){\n        require(allowed[from][to] >= tokens);\n        require(balances[from] >= tokens);\n\n        balances[from] -= tokens;\n        balances[to] += tokens;\n        allowed[from][to] -= tokens;\n\n        return true;\n    }\n}\n",
  "sourcePath": "/Users/selu/dev/SOLIDITY/hw/hw-03-solidity/contracts/SerhiiLCoin.sol",
  "compiler": {
    "name": "solc",
    "version": "0.8.10+commit.fc410830.Emscripten.clang"
  },
  "schemaVersion": "3.4.3",
  "updatedAt": "2021-11-28T05:16:42.036Z",
  "networkType": "ethereum",
  "devdoc": {
    "kind": "dev",
    "methods": {},
    "version": 1
  },
  "userdoc": {
    "kind": "user",
    "methods": {},
    "version": 1
  }
}