{
  "contractName": "SerhiiLCoin_ICO",
  "abi": [
    {
      "inputs": [],
      "stateMutability": "nonpayable",
      "type": "constructor"
    },
    {
      "anonymous": false,
      "inputs": [
        {
          "indexed": true,
          "internalType": "address",
          "name": "tokenOwner",
          "type": "address"
        },
        {
          "indexed": true,
          "internalType": "address",
          "name": "spender",
          "type": "address"
        },
        {
          "indexed": false,
          "internalType": "uint256",
          "name": "tokens",
          "type": "uint256"
        }
      ],
      "name": "Approval",
      "type": "event"
    },
    {
      "anonymous": false,
      "inputs": [
        {
          "indexed": false,
          "internalType": "address",
          "name": "investor",
          "type": "address"
        },
        {
          "indexed": false,
          "internalType": "uint256",
          "name": "value",
          "type": "uint256"
        },
        {
          "indexed": false,
          "internalType": "uint256",
          "name": "tokens",
          "type": "uint256"
        }
      ],
      "name": "Invest",
      "type": "event"
    },
    {
      "anonymous": false,
      "inputs": [
        {
          "indexed": true,
          "internalType": "address",
          "name": "from",
          "type": "address"
        },
        {
          "indexed": true,
          "internalType": "address",
          "name": "to",
          "type": "address"
        },
        {
          "indexed": false,
          "internalType": "uint256",
          "name": "tokens",
          "type": "uint256"
        }
      ],
      "name": "Transfer",
      "type": "event"
    },
    {
      "inputs": [],
      "name": "admin",
      "outputs": [
        {
          "internalType": "address",
          "name": "",
          "type": "address"
        }
      ],
      "stateMutability": "view",
      "type": "function",
      "constant": true
    },
    {
      "inputs": [
        {
          "internalType": "address",
          "name": "tokenOwner",
          "type": "address"
        },
        {
          "internalType": "address",
          "name": "spender",
          "type": "address"
        }
      ],
      "name": "allowance",
      "outputs": [
        {
          "internalType": "uint256",
          "name": "",
          "type": "uint256"
        }
      ],
      "stateMutability": "view",
      "type": "function",
      "constant": true
    },
    {
      "inputs": [
        {
          "internalType": "address",
          "name": "spender",
          "type": "address"
        },
        {
          "internalType": "uint256",
          "name": "tokens",
          "type": "uint256"
        }
      ],
      "name": "approve",
      "outputs": [
        {
          "internalType": "bool",
          "name": "success",
          "type": "bool"
        }
      ],
      "stateMutability": "nonpayable",
      "type": "function"
    },
    {
      "inputs": [
        {
          "internalType": "address",
          "name": "tokenOwner",
          "type": "address"
        }
      ],
      "name": "balanceOf",
      "outputs": [
        {
          "internalType": "uint256",
          "name": "balance",
          "type": "uint256"
        }
      ],
      "stateMutability": "view",
      "type": "function",
      "constant": true
    },
    {
      "inputs": [
        {
          "internalType": "address",
          "name": "",
          "type": "address"
        }
      ],
      "name": "balances",
      "outputs": [
        {
          "internalType": "uint256",
          "name": "",
          "type": "uint256"
        }
      ],
      "stateMutability": "view",
      "type": "function",
      "constant": true
    },
    {
      "inputs": [],
      "name": "decimals",
      "outputs": [
        {
          "internalType": "uint8",
          "name": "",
          "type": "uint8"
        }
      ],
      "stateMutability": "view",
      "type": "function",
      "constant": true
    },
    {
      "inputs": [],
      "name": "deposit",
      "outputs": [
        {
          "internalType": "address payable",
          "name": "",
          "type": "address"
        }
      ],
      "stateMutability": "view",
      "type": "function",
      "constant": true
    },
    {
      "inputs": [],
      "name": "founder",
      "outputs": [
        {
          "internalType": "address",
          "name": "",
          "type": "address"
        }
      ],
      "stateMutability": "view",
      "type": "function",
      "constant": true
    },
    {
      "inputs": [],
      "name": "hardCap",
      "outputs": [
        {
          "internalType": "uint256",
          "name": "",
          "type": "uint256"
        }
      ],
      "stateMutability": "view",
      "type": "function",
      "constant": true
    },
    {
      "inputs": [],
      "name": "icoState",
      "outputs": [
        {
          "internalType": "enum SerhiiLCoin_ICO.State",
          "name": "",
          "type": "uint8"
        }
      ],
      "stateMutability": "view",
      "type": "function",
      "constant": true
    },
    {
      "inputs": [],
      "name": "maxInvestment",
      "outputs": [
        {
          "internalType": "uint256",
          "name": "",
          "type": "uint256"
        }
      ],
      "stateMutability": "view",
      "type": "function",
      "constant": true
    },
    {
      "inputs": [],
      "name": "minInvestment",
      "outputs": [
        {
          "internalType": "uint256",
          "name": "",
          "type": "uint256"
        }
      ],
      "stateMutability": "view",
      "type": "function",
      "constant": true
    },
    {
      "inputs": [],
      "name": "name",
      "outputs": [
        {
          "internalType": "string",
          "name": "",
          "type": "string"
        }
      ],
      "stateMutability": "view",
      "type": "function",
      "constant": true
    },
    {
      "inputs": [],
      "name": "raisedAmount",
      "outputs": [
        {
          "internalType": "uint256",
          "name": "",
          "type": "uint256"
        }
      ],
      "stateMutability": "view",
      "type": "function",
      "constant": true
    },
    {
      "inputs": [],
      "name": "saleEnd",
      "outputs": [
        {
          "internalType": "uint256",
          "name": "",
          "type": "uint256"
        }
      ],
      "stateMutability": "view",
      "type": "function",
      "constant": true
    },
    {
      "inputs": [],
      "name": "saleStart",
      "outputs": [
        {
          "internalType": "uint256",
          "name": "",
          "type": "uint256"
        }
      ],
      "stateMutability": "view",
      "type": "function",
      "constant": true
    },
    {
      "inputs": [],
      "name": "symbol",
      "outputs": [
        {
          "internalType": "string",
          "name": "",
          "type": "string"
        }
      ],
      "stateMutability": "view",
      "type": "function",
      "constant": true
    },
    {
      "inputs": [],
      "name": "tokenTradeStart",
      "outputs": [
        {
          "internalType": "uint256",
          "name": "",
          "type": "uint256"
        }
      ],
      "stateMutability": "view",
      "type": "function",
      "constant": true
    },
    {
      "inputs": [],
      "name": "totalSupply",
      "outputs": [
        {
          "internalType": "uint256",
          "name": "",
          "type": "uint256"
        }
      ],
      "stateMutability": "view",
      "type": "function",
      "constant": true
    },
    {
      "stateMutability": "payable",
      "type": "receive",
      "payable": true
    },
    {
      "inputs": [],
      "name": "halt",
      "outputs": [],
      "stateMutability": "nonpayable",
      "type": "function"
    },
    {
      "inputs": [],
      "name": "resume",
      "outputs": [],
      "stateMutability": "nonpayable",
      "type": "function"
    },
    {
      "inputs": [
        {
          "internalType": "address payable",
          "name": "newDeposit",
          "type": "address"
        }
      ],
      "name": "changeDepositAddress",
      "outputs": [],
      "stateMutability": "nonpayable",
      "type": "function"
    },
    {
      "inputs": [],
      "name": "getCurrentState",
      "outputs": [
        {
          "internalType": "enum SerhiiLCoin_ICO.State",
          "name": "",
          "type": "uint8"
        }
      ],
      "stateMutability": "view",
      "type": "function",
      "constant": true
    },
    {
      "inputs": [],
      "name": "studentListSize",
      "outputs": [
        {
          "internalType": "uint256",
          "name": "",
          "type": "uint256"
        }
      ],
      "stateMutability": "view",
      "type": "function",
      "constant": true
    },
    {
      "inputs": [],
      "name": "getLatestETHUSDPrice",
      "outputs": [
        {
          "internalType": "uint256",
          "name": "",
          "type": "uint256"
        }
      ],
      "stateMutability": "view",
      "type": "function",
      "constant": true
    },
    {
      "inputs": [],
      "name": "calcTokenPrice",
      "outputs": [
        {
          "internalType": "uint256",
          "name": "",
          "type": "uint256"
        }
      ],
      "stateMutability": "view",
      "type": "function",
      "constant": true
    },
    {
      "inputs": [],
      "name": "buyTokens",
      "outputs": [
        {
          "internalType": "bool",
          "name": "",
          "type": "bool"
        }
      ],
      "stateMutability": "payable",
      "type": "function",
      "payable": true
    },
    {
      "inputs": [],
      "name": "burn",
      "outputs": [
        {
          "internalType": "bool",
          "name": "",
          "type": "bool"
        }
      ],
      "stateMutability": "nonpayable",
      "type": "function"
    },
    {
      "inputs": [
        {
          "internalType": "address",
          "name": "to",
          "type": "address"
        },
        {
          "internalType": "uint256",
          "name": "tokens",
          "type": "uint256"
        }
      ],
      "name": "transfer",
      "outputs": [
        {
          "internalType": "bool",
          "name": "success",
          "type": "bool"
        }
      ],
      "stateMutability": "nonpayable",
      "type": "function"
    },
    {
      "inputs": [
        {
          "internalType": "address",
          "name": "from",
          "type": "address"
        },
        {
          "internalType": "address",
          "name": "to",
          "type": "address"
        },
        {
          "internalType": "uint256",
          "name": "tokens",
          "type": "uint256"
        }
      ],
      "name": "transferFrom",
      "outputs": [
        {
          "internalType": "bool",
          "name": "success",
          "type": "bool"
        }
      ],
      "stateMutability": "nonpayable",
      "type": "function"
    }
  ],
  "bytecode": "0x60c0604052600e60808190526d29b2b93434b49026102a37b5b2b760911b60a090815262000031916000919062000177565b5060408051808201909152600480825263534c433160e01b60209092019182526200005f9160019162000177565b506002805460ff19169055600980546001600160a01b031916730e822c71e628b20a35f8bcabe8c11f274246e64d1790556802b5e3af16b1880000600a5542600c819055620000b29062093a806200021d565b600d819055620000c69062093a806200021d565b600e55670429d069189e0000600f5567016345785d8a0000601055348015620000ee57600080fd5b50620f42406003819055600480546001600160a01b03199081163390811790925560008281526005602052604090209290925560078054831690911790556008805490911673023c5740862327682ab022d6b3e160cc4cc0edfd179055601180546001600160a81b031916738a753747a1fa494ec906ce90e9f37563a8af630e17905562000281565b828054620001859062000244565b90600052602060002090601f016020900481019282620001a95760008555620001f4565b82601f10620001c457805160ff1916838001178555620001f4565b82800160010185558215620001f4579182015b82811115620001f4578251825591602001919060010190620001d7565b506200020292915062000206565b5090565b5b8082111562000202576000815560010162000207565b600082198211156200023f57634e487b7160e01b600052601160045260246000fd5b500190565b600181811c908216806200025957607f821691505b602082108114156200027b57634e487b7160e01b600052602260045260246000fd5b50919050565b6111ed80620002916000396000f3fe6080604052600436106101d05760003560e01c80636d58c88f116100f7578063c59ee1dc11610095578063dd62ed3e11610064578063dd62ed3e146104f6578063f555cdbb1461053c578063f851a44014610551578063fb86a4041461057157600080fd5b8063c59ee1dc146104a2578063cc9ba583146104b8578063d0e30db0146104ce578063d0febe4c146104ee57600080fd5b806395d89b41116100d157806395d89b4114610441578063a9059cbb14610456578063ab0bcc4114610476578063c10b93581461048c57600080fd5b80636d58c88f146103d557806370a08231146103f55780638ac2c6801461042b57600080fd5b8063313ce5671161016f57806344f387561161013e57806344f38756146103525780634d853ee5146103735780635ed7ca5b146103ab5780636aa83fea146103c057600080fd5b8063313ce567146102da578063378aa7011461030657806339f64b521461032857806344df8e701461033d57600080fd5b8063095ea7b3116101ab578063095ea7b31461024757806318160ddd1461027757806323b872dd1461028d57806327e235e3146102ad57600080fd5b80622e1316146101e5578063046f7da21461020e57806306fdde031461022557600080fd5b366101e0576101dd610587565b50005b600080fd5b3480156101f157600080fd5b506101fb600f5481565b6040519081526020015b60405180910390f35b34801561021a57600080fd5b506102236107db565b005b34801561023157600080fd5b5061023a61080f565b6040516102059190610dd7565b34801561025357600080fd5b50610267610262366004610e22565b61089d565b6040519015158152602001610205565b34801561028357600080fd5b506101fb60035481565b34801561029957600080fd5b506102676102a8366004610e4e565b61092b565b3480156102b957600080fd5b506101fb6102c8366004610e8f565b60056020526000908152604090205481565b3480156102e657600080fd5b506002546102f49060ff1681565b60405160ff9091168152602001610205565b34801561031257600080fd5b5061031b610951565b6040516102059190610ec9565b34801561033457600080fd5b506101fb6109b4565b34801561034957600080fd5b506102676109e7565b34801561035e57600080fd5b5060115461031b90600160a01b900460ff1681565b34801561037f57600080fd5b50600454610393906001600160a01b031681565b6040516001600160a01b039091168152602001610205565b3480156103b757600080fd5b50610223610a63565b3480156103cc57600080fd5b506101fb610a94565b3480156103e157600080fd5b506102236103f0366004610e8f565b610b23565b34801561040157600080fd5b506101fb610410366004610e8f565b6001600160a01b031660009081526005602052604090205490565b34801561043757600080fd5b506101fb60105481565b34801561044d57600080fd5b5061023a610b5c565b34801561046257600080fd5b50610267610471366004610e22565b610b69565b34801561048257600080fd5b506101fb600c5481565b34801561049857600080fd5b506101fb600d5481565b3480156104ae57600080fd5b506101fb600b5481565b3480156104c457600080fd5b506101fb600e5481565b3480156104da57600080fd5b50600854610393906001600160a01b031681565b610267610587565b34801561050257600080fd5b506101fb610511366004610ef1565b6001600160a01b03918216600090815260066020908152604080832093909416825291909152205490565b34801561054857600080fd5b506101fb610b8d565b34801561055d57600080fd5b50600754610393906001600160a01b031681565b34801561057d57600080fd5b506101fb600a5481565b6000610591610951565b6011805460ff60a01b1916600160a01b8360038111156105b3576105b3610eb3565b02179055506001601154600160a01b900460ff1660038111156105d8576105d8610eb3565b146105e257600080fd5b6010543410806105f35750600f5434115b156106c057600080336001600160a01b03166203345034604051610677907f536f7272792c20636f6e74726163742072756c65733a206d696e496e7665737481527f6d656e74203d20302e3120657468657220616e64206d6178496e766573746d6560208201526d373a101e901817199032ba3432b960911b6040820152604e0190565b600060405180830381858888f193505050503d80600081146106b5576040519150601f19603f3d011682016040523d82523d6000602084013e6106ba565b606091505b50505050505b34600b60008282546106d29190610f40565b9091555050600a54600b5411156106e857600080fd5b60006106f26109b4565b905060006107008234610f58565b33600090815260056020526040812080549293508392909190610724908490610f40565b90915550506004546001600160a01b031660009081526005602052604081208054839290610753908490610f7a565b90915550506008546040516001600160a01b03909116903480156108fc02916000818181858888f19350505050158015610791573d6000803e3d6000fd5b50604080513381523460208201529081018290527f4ae4bd7655e0d350876a23cd90c4227b13db560e34435c6a488150a9c844bf5f9060600160405180910390a160019250505090565b6007546001600160a01b031633146107f257600080fd5b601180546001919060ff60a01b1916600160a01b835b0217905550565b6000805461081c90610f91565b80601f016020809104026020016040519081016040528092919081815260200182805461084890610f91565b80156108955780601f1061086a57610100808354040283529160200191610895565b820191906000526020600020905b81548152906001019060200180831161087857829003601f168201915b505050505081565b336000908152600560205260408120548211156108b957600080fd5b600082116108c657600080fd5b3360008181526006602090815260408083206001600160a01b03881680855290835292819020869055518581529192917f8c5be1e5ebec7d5bd14f71427d1e84f3dd0314c0f7b2291e5b200ac8c7c3b92591015b60405180910390a350600192915050565b6000600e54421161093b57600080fd5b610946848484610c04565b506001949350505050565b60006003601154600160a01b900460ff16600381111561097357610973610eb3565b141561097f5750600390565b600c5442101561098f5750600090565b600c5442101580156109a35750600d544211155b156109ae5750600190565b50600290565b6000806109bf610b8d565b9050806109ca610a94565b6109d49190610f58565b6109e190620f4240610fcc565b91505090565b60006109f1610951565b6011805460ff60a01b1916600160a01b836003811115610a1357610a13610eb3565b02179055506002601154600160a01b900460ff166003811115610a3857610a38610eb3565b14610a4257600080fd5b506004546001600160a01b0316600090815260056020526040812055600190565b6007546001600160a01b03163314610a7a57600080fd5b601180546003919060ff60a01b1916600160a01b83610808565b600080600080600080601160009054906101000a90046001600160a01b03166001600160a01b031663feaf968c6040518163ffffffff1660e01b815260040160a060405180830381865afa158015610af0573d6000803e3d6000fd5b505050506040513d601f19601f82011682018060405250810190610b14919061100a565b50919998505050505050505050565b6007546001600160a01b03163314610b3a57600080fd5b600880546001600160a01b0319166001600160a01b0392909216919091179055565b6001805461081c90610f91565b6000600e544211610b7957600080fd5b610b838383610cfd565b5060019392505050565b600954604080516349fd8dfb60e01b815290516000926001600160a01b0316916349fd8dfb91600480830192869291908290030181865afa158015610bd6573d6000803e3d6000fd5b505050506040513d6000823e601f3d908101601f19168201604052610bfe91908101906110a1565b51905090565b6001600160a01b038084166000908152600660209081526040808320938616835292905290812054821115610c3857600080fd5b6001600160a01b038416600090815260056020526040902054821115610c5d57600080fd5b6001600160a01b03841660009081526005602052604081208054849290610c85908490610f7a565b90915550506001600160a01b03831660009081526005602052604081208054849290610cb2908490610f40565b90915550506001600160a01b03808516600090815260066020908152604080832093871683529290529081208054849290610cee908490610f7a565b90915550600195945050505050565b33600090815260056020526040812054821115610d1957600080fd5b6001600160a01b03831660009081526005602052604081208054849290610d41908490610f40565b90915550503360009081526005602052604081208054849290610d65908490610f7a565b90915550506040518281526001600160a01b0384169033907fddf252ad1be2c89b69c2b068fc378daa952ba7f163c4a11628f55a4df523b3ef9060200161091a565b60005b83811015610dc2578181015183820152602001610daa565b83811115610dd1576000848401525b50505050565b6020815260008251806020840152610df6816040850160208701610da7565b601f01601f19169190910160400192915050565b6001600160a01b0381168114610e1f57600080fd5b50565b60008060408385031215610e3557600080fd5b8235610e4081610e0a565b946020939093013593505050565b600080600060608486031215610e6357600080fd5b8335610e6e81610e0a565b92506020840135610e7e81610e0a565b929592945050506040919091013590565b600060208284031215610ea157600080fd5b8135610eac81610e0a565b9392505050565b634e487b7160e01b600052602160045260246000fd5b6020810160048310610eeb57634e487b7160e01b600052602160045260246000fd5b91905290565b60008060408385031215610f0457600080fd5b8235610f0f81610e0a565b91506020830135610f1f81610e0a565b809150509250929050565b634e487b7160e01b600052601160045260246000fd5b60008219821115610f5357610f53610f2a565b500190565b600082610f7557634e487b7160e01b600052601260045260246000fd5b500490565b600082821015610f8c57610f8c610f2a565b500390565b600181811c90821680610fa557607f821691505b60208210811415610fc657634e487b7160e01b600052602260045260246000fd5b50919050565b6000816000190483118215151615610fe657610fe6610f2a565b500290565b805169ffffffffffffffffffff8116811461100557600080fd5b919050565b600080600080600060a0868803121561102257600080fd5b61102b86610feb565b945060208601519350604086015192506060860151915061104e60808701610feb565b90509295509295909350565b634e487b7160e01b600052604160045260246000fd5b604051601f8201601f1916810167ffffffffffffffff811182821017156110995761109961105a565b604052919050565b600060208083850312156110b457600080fd5b825167ffffffffffffffff808211156110cc57600080fd5b8185019150601f86818401126110e157600080fd5b8251828111156110f3576110f361105a565b8060051b611102868201611070565b918252848101860191868101908a84111561111c57600080fd5b87870192505b838310156111a95782518681111561113a5760008081fd5b8701603f81018c1361114c5760008081fd5b888101516040888211156111625761116261105a565b611173828901601f19168c01611070565b8281528e828486010111156111885760008081fd5b611197838d8301848701610da7565b85525050509187019190870190611122565b9a995050505050505050505056fea2646970667358221220170eff1167e59dd0500dfa44f5209ab0ab1226cbe2ba2ed1fcb1100d0c8d0d5664736f6c634300080a0033",
  "immutableReferences": {},
  "source": "pragma solidity 0.8.10;\n\nimport \"./SerhiiLCoin.sol\";\nimport \"@chainlink/contracts/src/v0.8/interfaces/AggregatorV3Interface.sol\";\n\ninterface HomeContractClient {\n    function getStudentsList() external view returns (string[] memory students);\n}\n\ncontract SerhiiLCoin_ICO is SerhiiLCoin {\n\n    address public admin;\n    address payable public deposit;\n    address private HomeContractAddr = 0x0E822C71e628b20a35F8bCAbe8c11F274246e64D;\n\n    //    uint tokenPrice = 0.1 ether;  // 1 ETH = 10 SLC, 1 CRPT = 0.1\n    uint public hardCap = 50 ether;\n    uint public raisedAmount; // this value will be in wei\n    uint public saleStart = block.timestamp;\n    uint public saleEnd = block.timestamp + 604800; //one week\n\n    uint public tokenTradeStart = saleEnd + 604800; //transferable in a week after saleEnd\n    uint public maxInvestment = 0.3 ether;\n    uint public minInvestment = 0.1 ether;\n\n    AggregatorV3Interface internal priceFeed;\n\n    // ICO states\n    enum State {\n        beforeStart,\n        running,\n        afterEnd,\n        halted\n    }\n\n    State public icoState;\n\n    constructor(){\n        admin = msg.sender;\n        deposit = payable(0x023c5740862327682ab022D6B3e160cc4Cc0EdfD); // my metamask acc 2\n        icoState = State.beforeStart;\n        priceFeed = AggregatorV3Interface(0x8A753747A1Fa494EC906cE90E9f37563A8AF630e); //https://docs.chain.link/docs/ethereum-addresses/\n    }\n\n    modifier onlyAdmin(){\n        require(msg.sender == admin);\n        _;\n    }\n\n    // emergency stop\n    function halt() public onlyAdmin {\n        icoState = State.halted;\n    }\n\n    function resume() public onlyAdmin {\n        icoState = State.running;\n    }\n\n    function changeDepositAddress(address payable newDeposit) public onlyAdmin {\n        deposit = newDeposit;\n    }\n\n    function getCurrentState() public view returns (State){\n        if (icoState == State.halted) {\n            return State.halted;\n        } else if (block.timestamp < saleStart) {\n            return State.beforeStart;\n        } else if (block.timestamp >= saleStart && block.timestamp <= saleEnd) {\n            return State.running;\n        } else {\n            return State.afterEnd;\n        }\n    }\n\n    event Invest(address investor, uint value, uint tokens);\n\n    function studentListSize() view public returns (uint){\n        return HomeContractClient(HomeContractAddr).getStudentsList().length;\n    }\n\n    function getLatestETHUSDPrice() public view returns (uint) {\n        (\n            uint80 roundID,\n            int price,\n            uint startedAt,\n            uint timeStamp,\n            uint80 answeredInRound\n        ) = priceFeed.latestRoundData();\n        return uint(price);\n    }\n\n    function calcTokenPrice() public view returns (uint) {\n        uint count = studentListSize();\n        return getLatestETHUSDPrice() / count * 1000000; // just adjucted the price for readable demo with metemask - 1eth = 80 - 100 this coins\n    }\n\n    // function called when sending eth to the contract\n    function buyTokens() payable public returns (bool){\n        icoState = getCurrentState();\n        require(icoState == State.running);\n        if(msg.value < minInvestment || msg.value > maxInvestment){\n            (bool sent, bytes memory data) = msg.sender.call{gas:210000,value:msg.value}(\"Sorry, contract rules: minInvestment = 0.1 ether and maxInvestment = 0.3 ether\");\n        }\n\n        raisedAmount += msg.value;\n        require(raisedAmount <= hardCap);\n\n        uint tokenPrice = calcTokenPrice();\n        uint tokens = msg.value / tokenPrice;\n\n        balances[msg.sender] += tokens;\n        balances[founder] -= tokens;\n        deposit.transfer(msg.value); // transfering the value sent to the ICO to the deposit address\n\n        emit Invest(msg.sender, msg.value, tokens);\n\n        return true;\n    }\n\n    // this function is called automatically when someone sends ETH to the contract's address\n    receive() payable external {\n        buyTokens();\n    }\n\n    // burning unsold tokens\n    function burn() public returns (bool){\n        icoState = getCurrentState();\n        require(icoState == State.afterEnd);\n        balances[founder] = 0;\n        return true;\n    }\n\n    function transfer(address to, uint tokens) public override returns (bool success){\n        require(block.timestamp > tokenTradeStart);\n        // the token will be transferable only after tokenTradeStart\n        super.transfer(to, tokens);\n        return true;\n    }\n\n\n    function transferFrom(address from, address to, uint tokens) public override returns (bool success){\n        require(block.timestamp > tokenTradeStart);\n        // the token will be transferable only after tokenTradeStart\n        super.transferFrom(from, to, tokens);\n        return true;\n    }\n\n}\n",
  "sourcePath": "/Users/selu/dev/SOLIDITY/hw/hw-03-solidity/contracts/SerhiiLCoin_ICO.sol",
  "compiler": {
    "name": "solc",
    "version": "0.8.10+commit.fc410830.Emscripten.clang"
  },
  "schemaVersion": "3.4.3",
  "updatedAt": "2021-11-28T05:16:42.046Z",
  "networkType": "ethereum",
  "devdoc": {
    "kind": "dev",
    "methods": {},
    "version": 1
  },
  "userdoc": {
    "kind": "user",
    "methods": {},
    "version": 1
  }
}